app_config = {
    'multisig': {
        'networks': {
            'mainnet': [
                {
                    'label': 'dev',
                    'addr': '0xB65cef03b9B89f99517643226d76e286ee999e77'
                }
            ]
        }
    }
}

gnosis_tx_response_empty = []

gnosis_tx_response_data = [
    # NewTxEvent
    {
        "safe": "0xB65cef03b9B89f99517643226d76e286ee999e77",
        "to": "0x40A2aCCbd92BCA938b02010E17A5b8929b49130D",
        "value": "0",
        "data": "0x8d80ff0a000000000000000000000000000000000000000000000000000000000000002000000000000000000000000000000000000000000000000000000000000012c8003ff634ce65cdb8cc0d569d6d1697c41aa666cea900000000000000000000000000000000000000000000000000000000000000000000000000000000000000000000000000000000000000000000000000000244f4d5e0cc0000000000000000000000004e3fbd56cd56c3e72c1403e103b45db9da5b9d2b000000000000000000000000000000000000000000000000000000000000030c0000000000000000000000003ff634ce65cdb8cc0d569d6d1697c41aa666cea900000000000000000000000000000000000000000000006e4a3cd203a5a4000000000000000000000000000000000000000000000000000000000000000000a0000000000000000000000000000000000000000000000000000000000000000c6b79d0148b2dd836b80edb22937f19e58fbccc172dc9f5928db04a3845abdca558ba89f8af4231234268fa0d5737b22405a5a6f0ac416f647284b5abf0ca4d67a71a3790dca3c76f97be43b6bcd739052f26134925076d2b5a8aa56e43354f477a609ff23fe46093911fabdbfaacdc5f07a9b8c22b25faed6fc2d006fb30e09b6a6e3391a71a6c9195ddf20e2eddb9c8d1805830d91a7c199fc35e8fa73baae671a9798ca9bb958299a21dd822185ef556e8e7f597122d8f14017e4a7af506ead4b0e281e922116ee728d614cd22c2022d466d14c98b49d24799c831c8ce92d2037305d464f6e6309ec011ad2097bad2a2a348fc6ccdb0b4d0917331a41be1ceaffad693686ceeb7603e526c6a9e1dca7f76c438e1059e58d9f72f7e01027bfe4fced0af9e0b1c91f48139e18231e7383459247f8cd67e888e70639cb5dc90d9f63fa3869c5e582d8a343fc15de8041e432a0c8ae7474f2b20e87094e2d96451e5387d602c06d7c74cd5a6b266509b6f8c29de5ea4a5dfd24a24db88b764548c003ff634ce65cdb8cc0d569d6d1697c41aa666cea900000000000000000000000000000000000000000000000000000000000000000000000000000000000000000000000000000000000000000000000000000244f4d5e0cc000000000000000000000000dbdb4d16eda451d0503b854cf79d55697f90c8df00000000000000000000000000000000000000000000000000000000000002e50000000000000000000000003ff634ce65cdb8cc0d569d6d1697c41aa666cea900000000000000000000000000000000000000000000001f19d10ef92f42000000000000000000000000000000000000000000000000000000000000000000a0000000000000000000000000000000000000000000000000000000000000000ca9f18f3efd4a5433e2c3ae4b2e6d50f41c52a871e441773786132eb7b4c5171211374e397a0ce9a60f244f878819e5ef212b93fbf0651b4154d731be2bd60c1bf866072133e48314395ab0554e026484bd49147a41fe665bb9e32a9cb6ce63881bbb2e103b0689c6eb6c5fa7807d169f13d24ca5ae9ca31e2b573cc576e205017a56a9884630fc4d17f7951fb1ad56cce98371da79f76a582dc9dbfe1d907bfcd2b88e34066752cc9a5b2dcc71d6fb4d77ae890923d75f12f59cc20ace01b3f0bde3433c597773380e769f5ec02ca203aadf4ced6252dd12e6f723c926df0d19e1ec347a5284f9b0873d06ac2b3e6dd6f7a3ea1508196e384b0e1a9e9196690d8b9bd1b346690fce050d021df7cf3ae747de1b6b27d9c9f753b18e45eca4f3ee709a27cf25a91ceb54594e03dcee34bdc2901372cb30bfac4ad89265aa6c28456f742230a668c1450439bdae11628e0b27c5120b1e47090f497af618858ff23aeb557ec06928cb1218cba4b1f9da16ec5a177b394170dc2ea1dd567f9a60582c003ff634ce65cdb8cc0d569d6d1697c41aa666cea900000000000000000000000000000000000000000000000000000000000000000000000000000000000000000000000000000000000000000000000000000244f4d5e0cc0000000000000000000000003432b6a60d23ca0dfca7761b7ab56459d9c964d0000000000000000000000000000000000000000000000000000000000000030a0000000000000000000000003ff634ce65cdb8cc0d569d6d1697c41aa666cea90000000000000000000000000000000000000000000001910c3fc702d960000000000000000000000000000000000000000000000000000000000000000000a0000000000000000000000000000000000000000000000000000000000000000c16a7ef3413f81c8b4538a8434ce5717fc44443c61e1f22589b4172a9e18e3cf1cb8f9689e4e7d3bc496cefee6260ca49dbdc843583a2a14e229d362d30882c732e3506915414fa83ec33d68a746ac71b426ab9f9bbe9df88ec3548b07f8eb9d96b54027e1bb9741a6ede866725b86f2aec8d16ac6eddfb94e745cd623438b653e85d537d039ccbf78bd839955ab74772f02a2a7368ae54f6d333d318806c4553ac49986f9cae8ba48761340ec8fb90b796e421ec013f3b4cb77c1499941c59abdcaf1f7ddaa9c7e2c2cfe32948509e4e8f2fed68e6d58549c7eaa0afa8339270792597ba704bed790e863d7061f735c0b60461bc3fa8e30dd828045ee618cc0fb5b5366183f664e187474e646a239aa3eaed3e3ff8349a7e186676997f5554d602c103ec12e98ef79fa948ef5fa2b37a8411c321e3efa6916c7d7c5fe031c68a52317a536c0888707b8906d7d817155df6d6d4bee7d628bf31203f3f4419f664bc33f36002353a66bc7aa4747c06ed54da8146102aef9ebcda8ddcca5aa34bca003ff634ce65cdb8cc0d569d6d1697c41aa666cea900000000000000000000000000000000000000000000000000000000000000000000000000000000000000000000000000000000000000000000000000000244f4d5e0cc0000000000000000000000005a98fcbea516cf06857215779fd812ca3bef1b3200000000000000000000000000000000000000000000000000000000000002190000000000000000000000003ff634ce65cdb8cc0d569d6d1697c41aa666cea9000000000000000000000000000000000000000000000524e39ef8f48a00000000000000000000000000000000000000000000000000000000000000000000a0000000000000000000000000000000000000000000000000000000000000000cb8d1aaa00d40fc384ce007a9dd9156937891a93f01447844982efb58780e3f295081f2a5a06dc245bb79a6a9eb0865df4a3e61091fe9d65b47676a9a40b460446fc1d84fe5a9e897cec87a5c18c605079e9f9c15c58b9214fe5c45dcd47dddaf15c1eb58320818620fd295e1a0334c33b2272de6ae76563bab87509002e68be05e6001f6f7bad711a269d1b0ca651577f45c445b461ba0ff1f1335c2d1c59f5d4b30445cc47f23a84feff3b68c1795a3ae26f0df4d62dcb94cde6e2bf5914d9716fe1a1ee06551230f291538a163824b2a7ae0e85bec4a35a3ac2b178fee916414993fc388beec692889e2e7a27034e8f4fb22f9850abc8fb3e59902e6200050432fa03d6235d9e73f44b5eb4106fb8d8bb6aa1741031528aac428b4f725052593f54d3ea98d4721232ccacfc36c894bb35f00d1d9e091f82101c5d3e803a2c225d92edd26370223a1629e79bb46ca4cf615757a55d72aa392b99818e1eb106a7508c7f464b090bd704480812f6087a4e3593ca58f97a55ebef81d36a60e3d83003ff634ce65cdb8cc0d569d6d1697c41aa666cea900000000000000000000000000000000000000000000000000000000000000000000000000000000000000000000000000000000000000000000000000000244f4d5e0cc000000000000000000000000c7283b66eb1eb5fb86327f08e1b5816b0720212b000000000000000000000000000000000000000000000000000000000000024e0000000000000000000000003ff634ce65cdb8cc0d569d6d1697c41aa666cea9000000000000000000000000000000000000000000000e3fe02a71732b80000000000000000000000000000000000000000000000000000000000000000000a0000000000000000000000000000000000000000000000000000000000000000c97d6ab81a103afa734ec94b0a68b4613ac72238b0bc5283737943c23ebbec6429cf87c7f3de245814f704d520dc3cf4f7ab11665d7899a422aa030ae3ec51e706b500e1a1fbe96124d32db2cd6bada764c7a6bdbad9fab1d37f06b1d81ae31265ea5677d6490b64d7df4798b5fe83b96c1b7f9aacd984299b4a9b6a5bb134e3d980fb3ad9cfb4a06b786f6bfeed701d3d41fb4af566205574c7f9f7e37b1884dc53a254108ca6a6a8b3d5db87ce59ff20f15f3bbbdad08cdf86996a8fe60b8268d942b86b2288c5cf74d42d8c7eb3270ac6ffb55244e7e56ea8ac82db21b153061e3e5ec1cdc136c2c39183b9ca51c415daa80a0b96c5f3c2dbaf53a48cd93357b3cbd81cb8a79b15a721bd6e447876db2019e835e986823b73ce0a84e39403da6a2533488c0238897417ba6f7907a58471d3b7a8c83c663cfc88f3753dc0f59b99818d529a598651f9055baf6f91e3b79be66e4b2a58e4a352bae49e97e39668643876261b446906764dc19bb05aae555473706455f64aac63745c70ba51fb4003ff634ce65cdb8cc0d569d6d1697c41aa666cea900000000000000000000000000000000000000000000000000000000000000000000000000000000000000000000000000000000000000000000000000000244f4d5e0cc00000000000000000000000031429d1856ad1377a8a0079410b297e1a9e214c200000000000000000000000000000000000000000000000000000000000002730000000000000000000000003ff634ce65cdb8cc0d569d6d1697c41aa666cea90000000000000000000000000000000000000000000035b48cd201882a00000000000000000000000000000000000000000000000000000000000000000000a0000000000000000000000000000000000000000000000000000000000000000c6e042128c4521d04c67585659fa724a9d500abe0499c5743c2fe6a072d2bd50c00900224a764334f34aeade0de38c3985a8443a97c1773faebd120db0b9fdb207d221d109b4f35b60f2f4f42e3b5a21437a50850621adb406e9980966fa094fd00dd3d99786689244a8ec770388e752f08fc202dfdaad86f3d44da37f7f6b68f1f9ac752e439a88b0e5f297b2452e9b6f557fca06fb5b7da08464fabe3edd8321d98c54917a43fb517acd7f82e70ca7612467bf439b58e3181d6c09b2374ab40b97f4f551b34f997cd27306c3f034d0fc7142717590c06a424ed07699ac014fe038b98eae1d7182a16aad29bb763f2292d8fde3363d77965c032066aa0a7fdba2a85811ba9b791d65f043b9b4d3e77d1468cc37819d9a91614cb09ef919b6e6dbc6baefff399be8b977549d22e484928d3b6648d316870069c3632842619b4128031ea431b1d0187e7924f61b2b8a855743a1816b3cdaf5b17fa5092af3975d2caac00e65c4ecbfb64604e08fb021a8672c86039ecb7956da6ed801914474ceb003ff634ce65cdb8cc0d569d6d1697c41aa666cea900000000000000000000000000000000000000000000000000000000000000000000000000000000000000000000000000000000000000000000000000000224f4d5e0cc000000000000000000000000cdf7028ceab81fa0c6971208e83fa7872994bee500000000000000000000000000000000000000000000000000000000000001dd0000000000000000000000003ff634ce65cdb8cc0d569d6d1697c41aa666cea900000000000000000000000000000000000000000000614f9422b54d0000000000000000000000000000000000000000000000000000000000000000000000a0000000000000000000000000000000000000000000000000000000000000000b2fd00f29e04f3c6f9106f1f2a5d06c736edc2cbc82134bca6887b5b22be32a944171778e0edefd911afd26a868c954ee542d1aa9c9e990dd7d0b7707c3a8bd8bec130f4ec7d4da113434a0efcaee1643cb8f32c5b03566233d19e259933d6eceea5347d378d295ba639a45731a028d39c4e3b44f03432cc5495020ea6546f6c1d23ce50ec3f583385a36037d5481b085a692b1bf775af0a95464def76957befb718ea4cd545c6ed4da64b5bf5db304299a84a418061d4f7fb046101310330aa2ce0cb86a884985538a053b01ea2d031a078d5fba9ec57e976f845a4516c0bcc9517c347cb06f265537f9b1a328e2b7e78ed53e7a5f368e8b90a477932aa29b138f36d6873c77d8afeefce7b705127c7474af1c9d87fb66735bb648d3f67df0b359d9b2b0f898917902f52a898ee461c0d860a3197a90112b415241f34190c6d11eb3e2506eb859829daf66c1903e9ed8aeacfab7a1a44fe088af9dea78f2b290003ff634ce65cdb8cc0d569d6d1697c41aa666cea9000000000000000000000000000000000000000000000000000000000000000000000000000000000000000000000000000000000000000000000000000000645218e63000000000000000000000000000000000000000000000000000000000000000200000000000000000000000000000000000000000000000000000000000000001000000000000000000000000090185f2135308bad17527004364ebcc2d37e5f6000000000000000000000000000000000000000000000000",
        "operation": 1,
        "gasToken": "0x0000000000000000000000000000000000000000",
        "safeTxGas": 2558048,
        "baseGas": 0,
        "gasPrice": "0",
        "refundReceiver": "0x0000000000000000000000000000000000000000",
        "nonce": 1001,
        "executionDate": None,
        "submissionDate": "2022-02-24T19:57:00.10311Z",
        "modified": "2022-02-08T17:32:46.861224Z",
        "blockNumber": None,
        "transactionHash": None,
        "safeTxHash": "0x36bfc8307ef447256ac90f97738db18ecd53cff12e2a1f634c6815e25227262d",
        "executor": None,
        "isExecuted": False,
        "isSuccessful": None,
        "ethGasPrice": None,
        "gasUsed": None,
        "fee": None,
        "origin": "github.com/banteg/ape-safe",
        "dataDecoded": {
            "method": "multiSend",
            "parameters": [
                {
                    "name": "transactions",
                    "type": "bytes",
                    "value": "0x003ff634ce65cdb8cc0d569d6d1697c41aa666cea900000000000000000000000000000000000000000000000000000000000000000000000000000000000000000000000000000000000000000000000000000244f4d5e0cc0000000000000000000000004e3fbd56cd56c3e72c1403e103b45db9da5b9d2b000000000000000000000000000000000000000000000000000000000000030c0000000000000000000000003ff634ce65cdb8cc0d569d6d1697c41aa666cea900000000000000000000000000000000000000000000006e4a3cd203a5a4000000000000000000000000000000000000000000000000000000000000000000a0000000000000000000000000000000000000000000000000000000000000000c6b79d0148b2dd836b80edb22937f19e58fbccc172dc9f5928db04a3845abdca558ba89f8af4231234268fa0d5737b22405a5a6f0ac416f647284b5abf0ca4d67a71a3790dca3c76f97be43b6bcd739052f26134925076d2b5a8aa56e43354f477a609ff23fe46093911fabdbfaacdc5f07a9b8c22b25faed6fc2d006fb30e09b6a6e3391a71a6c9195ddf20e2eddb9c8d1805830d91a7c199fc35e8fa73baae671a9798ca9bb958299a21dd822185ef556e8e7f597122d8f14017e4a7af506ead4b0e281e922116ee728d614cd22c2022d466d14c98b49d24799c831c8ce92d2037305d464f6e6309ec011ad2097bad2a2a348fc6ccdb0b4d0917331a41be1ceaffad693686ceeb7603e526c6a9e1dca7f76c438e1059e58d9f72f7e01027bfe4fced0af9e0b1c91f48139e18231e7383459247f8cd67e888e70639cb5dc90d9f63fa3869c5e582d8a343fc15de8041e432a0c8ae7474f2b20e87094e2d96451e5387d602c06d7c74cd5a6b266509b6f8c29de5ea4a5dfd24a24db88b764548c003ff634ce65cdb8cc0d569d6d1697c41aa666cea900000000000000000000000000000000000000000000000000000000000000000000000000000000000000000000000000000000000000000000000000000244f4d5e0cc000000000000000000000000dbdb4d16eda451d0503b854cf79d55697f90c8df00000000000000000000000000000000000000000000000000000000000002e50000000000000000000000003ff634ce65cdb8cc0d569d6d1697c41aa666cea900000000000000000000000000000000000000000000001f19d10ef92f42000000000000000000000000000000000000000000000000000000000000000000a0000000000000000000000000000000000000000000000000000000000000000ca9f18f3efd4a5433e2c3ae4b2e6d50f41c52a871e441773786132eb7b4c5171211374e397a0ce9a60f244f878819e5ef212b93fbf0651b4154d731be2bd60c1bf866072133e48314395ab0554e026484bd49147a41fe665bb9e32a9cb6ce63881bbb2e103b0689c6eb6c5fa7807d169f13d24ca5ae9ca31e2b573cc576e205017a56a9884630fc4d17f7951fb1ad56cce98371da79f76a582dc9dbfe1d907bfcd2b88e34066752cc9a5b2dcc71d6fb4d77ae890923d75f12f59cc20ace01b3f0bde3433c597773380e769f5ec02ca203aadf4ced6252dd12e6f723c926df0d19e1ec347a5284f9b0873d06ac2b3e6dd6f7a3ea1508196e384b0e1a9e9196690d8b9bd1b346690fce050d021df7cf3ae747de1b6b27d9c9f753b18e45eca4f3ee709a27cf25a91ceb54594e03dcee34bdc2901372cb30bfac4ad89265aa6c28456f742230a668c1450439bdae11628e0b27c5120b1e47090f497af618858ff23aeb557ec06928cb1218cba4b1f9da16ec5a177b394170dc2ea1dd567f9a60582c003ff634ce65cdb8cc0d569d6d1697c41aa666cea900000000000000000000000000000000000000000000000000000000000000000000000000000000000000000000000000000000000000000000000000000244f4d5e0cc0000000000000000000000003432b6a60d23ca0dfca7761b7ab56459d9c964d0000000000000000000000000000000000000000000000000000000000000030a0000000000000000000000003ff634ce65cdb8cc0d569d6d1697c41aa666cea90000000000000000000000000000000000000000000001910c3fc702d960000000000000000000000000000000000000000000000000000000000000000000a0000000000000000000000000000000000000000000000000000000000000000c16a7ef3413f81c8b4538a8434ce5717fc44443c61e1f22589b4172a9e18e3cf1cb8f9689e4e7d3bc496cefee6260ca49dbdc843583a2a14e229d362d30882c732e3506915414fa83ec33d68a746ac71b426ab9f9bbe9df88ec3548b07f8eb9d96b54027e1bb9741a6ede866725b86f2aec8d16ac6eddfb94e745cd623438b653e85d537d039ccbf78bd839955ab74772f02a2a7368ae54f6d333d318806c4553ac49986f9cae8ba48761340ec8fb90b796e421ec013f3b4cb77c1499941c59abdcaf1f7ddaa9c7e2c2cfe32948509e4e8f2fed68e6d58549c7eaa0afa8339270792597ba704bed790e863d7061f735c0b60461bc3fa8e30dd828045ee618cc0fb5b5366183f664e187474e646a239aa3eaed3e3ff8349a7e186676997f5554d602c103ec12e98ef79fa948ef5fa2b37a8411c321e3efa6916c7d7c5fe031c68a52317a536c0888707b8906d7d817155df6d6d4bee7d628bf31203f3f4419f664bc33f36002353a66bc7aa4747c06ed54da8146102aef9ebcda8ddcca5aa34bca003ff634ce65cdb8cc0d569d6d1697c41aa666cea900000000000000000000000000000000000000000000000000000000000000000000000000000000000000000000000000000000000000000000000000000244f4d5e0cc0000000000000000000000005a98fcbea516cf06857215779fd812ca3bef1b3200000000000000000000000000000000000000000000000000000000000002190000000000000000000000003ff634ce65cdb8cc0d569d6d1697c41aa666cea9000000000000000000000000000000000000000000000524e39ef8f48a00000000000000000000000000000000000000000000000000000000000000000000a0000000000000000000000000000000000000000000000000000000000000000cb8d1aaa00d40fc384ce007a9dd9156937891a93f01447844982efb58780e3f295081f2a5a06dc245bb79a6a9eb0865df4a3e61091fe9d65b47676a9a40b460446fc1d84fe5a9e897cec87a5c18c605079e9f9c15c58b9214fe5c45dcd47dddaf15c1eb58320818620fd295e1a0334c33b2272de6ae76563bab87509002e68be05e6001f6f7bad711a269d1b0ca651577f45c445b461ba0ff1f1335c2d1c59f5d4b30445cc47f23a84feff3b68c1795a3ae26f0df4d62dcb94cde6e2bf5914d9716fe1a1ee06551230f291538a163824b2a7ae0e85bec4a35a3ac2b178fee916414993fc388beec692889e2e7a27034e8f4fb22f9850abc8fb3e59902e6200050432fa03d6235d9e73f44b5eb4106fb8d8bb6aa1741031528aac428b4f725052593f54d3ea98d4721232ccacfc36c894bb35f00d1d9e091f82101c5d3e803a2c225d92edd26370223a1629e79bb46ca4cf615757a55d72aa392b99818e1eb106a7508c7f464b090bd704480812f6087a4e3593ca58f97a55ebef81d36a60e3d83003ff634ce65cdb8cc0d569d6d1697c41aa666cea900000000000000000000000000000000000000000000000000000000000000000000000000000000000000000000000000000000000000000000000000000244f4d5e0cc000000000000000000000000c7283b66eb1eb5fb86327f08e1b5816b0720212b000000000000000000000000000000000000000000000000000000000000024e0000000000000000000000003ff634ce65cdb8cc0d569d6d1697c41aa666cea9000000000000000000000000000000000000000000000e3fe02a71732b80000000000000000000000000000000000000000000000000000000000000000000a0000000000000000000000000000000000000000000000000000000000000000c97d6ab81a103afa734ec94b0a68b4613ac72238b0bc5283737943c23ebbec6429cf87c7f3de245814f704d520dc3cf4f7ab11665d7899a422aa030ae3ec51e706b500e1a1fbe96124d32db2cd6bada764c7a6bdbad9fab1d37f06b1d81ae31265ea5677d6490b64d7df4798b5fe83b96c1b7f9aacd984299b4a9b6a5bb134e3d980fb3ad9cfb4a06b786f6bfeed701d3d41fb4af566205574c7f9f7e37b1884dc53a254108ca6a6a8b3d5db87ce59ff20f15f3bbbdad08cdf86996a8fe60b8268d942b86b2288c5cf74d42d8c7eb3270ac6ffb55244e7e56ea8ac82db21b153061e3e5ec1cdc136c2c39183b9ca51c415daa80a0b96c5f3c2dbaf53a48cd93357b3cbd81cb8a79b15a721bd6e447876db2019e835e986823b73ce0a84e39403da6a2533488c0238897417ba6f7907a58471d3b7a8c83c663cfc88f3753dc0f59b99818d529a598651f9055baf6f91e3b79be66e4b2a58e4a352bae49e97e39668643876261b446906764dc19bb05aae555473706455f64aac63745c70ba51fb4003ff634ce65cdb8cc0d569d6d1697c41aa666cea900000000000000000000000000000000000000000000000000000000000000000000000000000000000000000000000000000000000000000000000000000244f4d5e0cc00000000000000000000000031429d1856ad1377a8a0079410b297e1a9e214c200000000000000000000000000000000000000000000000000000000000002730000000000000000000000003ff634ce65cdb8cc0d569d6d1697c41aa666cea90000000000000000000000000000000000000000000035b48cd201882a00000000000000000000000000000000000000000000000000000000000000000000a0000000000000000000000000000000000000000000000000000000000000000c6e042128c4521d04c67585659fa724a9d500abe0499c5743c2fe6a072d2bd50c00900224a764334f34aeade0de38c3985a8443a97c1773faebd120db0b9fdb207d221d109b4f35b60f2f4f42e3b5a21437a50850621adb406e9980966fa094fd00dd3d99786689244a8ec770388e752f08fc202dfdaad86f3d44da37f7f6b68f1f9ac752e439a88b0e5f297b2452e9b6f557fca06fb5b7da08464fabe3edd8321d98c54917a43fb517acd7f82e70ca7612467bf439b58e3181d6c09b2374ab40b97f4f551b34f997cd27306c3f034d0fc7142717590c06a424ed07699ac014fe038b98eae1d7182a16aad29bb763f2292d8fde3363d77965c032066aa0a7fdba2a85811ba9b791d65f043b9b4d3e77d1468cc37819d9a91614cb09ef919b6e6dbc6baefff399be8b977549d22e484928d3b6648d316870069c3632842619b4128031ea431b1d0187e7924f61b2b8a855743a1816b3cdaf5b17fa5092af3975d2caac00e65c4ecbfb64604e08fb021a8672c86039ecb7956da6ed801914474ceb003ff634ce65cdb8cc0d569d6d1697c41aa666cea900000000000000000000000000000000000000000000000000000000000000000000000000000000000000000000000000000000000000000000000000000224f4d5e0cc000000000000000000000000cdf7028ceab81fa0c6971208e83fa7872994bee500000000000000000000000000000000000000000000000000000000000001dd0000000000000000000000003ff634ce65cdb8cc0d569d6d1697c41aa666cea900000000000000000000000000000000000000000000614f9422b54d0000000000000000000000000000000000000000000000000000000000000000000000a0000000000000000000000000000000000000000000000000000000000000000b2fd00f29e04f3c6f9106f1f2a5d06c736edc2cbc82134bca6887b5b22be32a944171778e0edefd911afd26a868c954ee542d1aa9c9e990dd7d0b7707c3a8bd8bec130f4ec7d4da113434a0efcaee1643cb8f32c5b03566233d19e259933d6eceea5347d378d295ba639a45731a028d39c4e3b44f03432cc5495020ea6546f6c1d23ce50ec3f583385a36037d5481b085a692b1bf775af0a95464def76957befb718ea4cd545c6ed4da64b5bf5db304299a84a418061d4f7fb046101310330aa2ce0cb86a884985538a053b01ea2d031a078d5fba9ec57e976f845a4516c0bcc9517c347cb06f265537f9b1a328e2b7e78ed53e7a5f368e8b90a477932aa29b138f36d6873c77d8afeefce7b705127c7474af1c9d87fb66735bb648d3f67df0b359d9b2b0f898917902f52a898ee461c0d860a3197a90112b415241f34190c6d11eb3e2506eb859829daf66c1903e9ed8aeacfab7a1a44fe088af9dea78f2b290003ff634ce65cdb8cc0d569d6d1697c41aa666cea9000000000000000000000000000000000000000000000000000000000000000000000000000000000000000000000000000000000000000000000000000000645218e63000000000000000000000000000000000000000000000000000000000000000200000000000000000000000000000000000000000000000000000000000000001000000000000000000000000090185f2135308bad17527004364ebcc2d37e5f6",
                    "valueDecoded": [
                        {
                            "operation": 0,
                            "to": "0x3ff634ce65cDb8CC0D569D6d1697c41aa666cEA9",
                            "value": "0",
                            "data": "0xf4d5e0cc0000000000000000000000004e3fbd56cd56c3e72c1403e103b45db9da5b9d2b000000000000000000000000000000000000000000000000000000000000030c0000000000000000000000003ff634ce65cdb8cc0d569d6d1697c41aa666cea900000000000000000000000000000000000000000000006e4a3cd203a5a4000000000000000000000000000000000000000000000000000000000000000000a0000000000000000000000000000000000000000000000000000000000000000c6b79d0148b2dd836b80edb22937f19e58fbccc172dc9f5928db04a3845abdca558ba89f8af4231234268fa0d5737b22405a5a6f0ac416f647284b5abf0ca4d67a71a3790dca3c76f97be43b6bcd739052f26134925076d2b5a8aa56e43354f477a609ff23fe46093911fabdbfaacdc5f07a9b8c22b25faed6fc2d006fb30e09b6a6e3391a71a6c9195ddf20e2eddb9c8d1805830d91a7c199fc35e8fa73baae671a9798ca9bb958299a21dd822185ef556e8e7f597122d8f14017e4a7af506ead4b0e281e922116ee728d614cd22c2022d466d14c98b49d24799c831c8ce92d2037305d464f6e6309ec011ad2097bad2a2a348fc6ccdb0b4d0917331a41be1ceaffad693686ceeb7603e526c6a9e1dca7f76c438e1059e58d9f72f7e01027bfe4fced0af9e0b1c91f48139e18231e7383459247f8cd67e888e70639cb5dc90d9f63fa3869c5e582d8a343fc15de8041e432a0c8ae7474f2b20e87094e2d96451e5387d602c06d7c74cd5a6b266509b6f8c29de5ea4a5dfd24a24db88b764548c",
                            "dataDecoded": None
                        }
                    ]
                }
            ]
        },
        "confirmationsRequired": None,
        "confirmations": [],
        "signatures": None,
        "transfers": [],
        "txType": "MULTISIG_TRANSACTION"
    },
    # TxIsReadyForExecuteEvent
    {
        "safe": "0xB65cef03b9B89f99517643226d76e286ee999e77",
        "to": "0x40A2aCCbd92BCA938b02010E17A5b8929b49130D",
        "value": "0",
        "data": "0x8d80ff0a000000000000000000000000000000000000000000000000000000000000002000000000000000000000000000000000000000000000000000000000000009740019d97d8fa813ee2f51ad4b4e04ea08baf4dffc28000000000000000000000000000000000000000000000000000000000000000000000000000000000000000000000000000000000000000000000000000000246c361865000000000000000000000000d0a7a8b98957b9cd3cfb9c0425abe44551158e9e007e7e112a68d8d2e221e11047a72ffc1065c38e1a000000000000000000000000000000000000000000000000000000000000000000000000000000000000000000000000000000000000000000000000000000246c361865000000000000000000000000d0a7a8b98957b9cd3cfb9c0425abe44551158e9e00af5a1decfa95baf63e0084a35c62592b774a2a87000000000000000000000000000000000000000000000000000000000000000000000000000000000000000000000000000000000000000000000000000000246c361865000000000000000000000000d0a7a8b98957b9cd3cfb9c0425abe44551158e9e00235c9e24d3fb2fafd58a2e49d454fdcd2dbf7ff1000000000000000000000000000000000000000000000000000000000000000000000000000000000000000000000000000000000000000000000000000000246c361865000000000000000000000000d0a7a8b98957b9cd3cfb9c0425abe44551158e9e001862a18181346ebd9edaf800804f89190def24a5000000000000000000000000000000000000000000000000000000000000000000000000000000000000000000000000000000000000000000000000000000246c361865000000000000000000000000d0a7a8b98957b9cd3cfb9c0425abe44551158e9e008a8ffec8f4a0c8c9585da95d9d97e8cd6de273de000000000000000000000000000000000000000000000000000000000000000000000000000000000000000000000000000000000000000000000000000000246c361865000000000000000000000000d0a7a8b98957b9cd3cfb9c0425abe44551158e9e00c17078fdd324cc473f8175dc5290fae5f2e84714000000000000000000000000000000000000000000000000000000000000000000000000000000000000000000000000000000000000000000000000000000246c361865000000000000000000000000d0a7a8b98957b9cd3cfb9c0425abe44551158e9e0088128580acdd9c04ce47afce196875747bf2a9f6000000000000000000000000000000000000000000000000000000000000000000000000000000000000000000000000000000000000000000000000000000246c361865000000000000000000000000d0a7a8b98957b9cd3cfb9c0425abe44551158e9e00758a43ee2bff8230eeb784879cdcff4828f2544d000000000000000000000000000000000000000000000000000000000000000000000000000000000000000000000000000000000000000000000000000000246c361865000000000000000000000000d0a7a8b98957b9cd3cfb9c0425abe44551158e9e00ae96ff08771a109dc6650a1bdca62f2d558e40af000000000000000000000000000000000000000000000000000000000000000000000000000000000000000000000000000000000000000000000000000000246c361865000000000000000000000000d0a7a8b98957b9cd3cfb9c0425abe44551158e9e00be08ef12e4a553666291e9ffc24fccfd354f2dd2000000000000000000000000000000000000000000000000000000000000000000000000000000000000000000000000000000000000000000000000000000246c361865000000000000000000000000d0a7a8b98957b9cd3cfb9c0425abe44551158e9e0027e98fc7d05f54e544d16f58c194c2d7ba71e3b5000000000000000000000000000000000000000000000000000000000000000000000000000000000000000000000000000000000000000000000000000000246c361865000000000000000000000000d0a7a8b98957b9cd3cfb9c0425abe44551158e9e002b5455aac8d64c14786c3a29858e43b5945819c0000000000000000000000000000000000000000000000000000000000000000000000000000000000000000000000000000000000000000000000000000000246c361865000000000000000000000000d0a7a8b98957b9cd3cfb9c0425abe44551158e9e0053c8e199eb2cb7c01543c137078a038937a68e40000000000000000000000000000000000000000000000000000000000000000000000000000000000000000000000000000000000000000000000000000000246c361865000000000000000000000000d0a7a8b98957b9cd3cfb9c0425abe44551158e9e00fd05d3c7fe2924020620a8be4961bbaa747e6305000000000000000000000000000000000000000000000000000000000000000000000000000000000000000000000000000000000000000000000000000000246c361865000000000000000000000000d0a7a8b98957b9cd3cfb9c0425abe44551158e9e00599d92b453c010b1050d31c364f6ee17e819f193000000000000000000000000000000000000000000000000000000000000000000000000000000000000000000000000000000000000000000000000000000246c361865000000000000000000000000d0a7a8b98957b9cd3cfb9c0425abe44551158e9e0026b8efa69603537ac8ab55768b6740b67664d518000000000000000000000000000000000000000000000000000000000000000000000000000000000000000000000000000000000000000000000000000000246c361865000000000000000000000000d0a7a8b98957b9cd3cfb9c0425abe44551158e9e00937b8e917d0f36edebba8e459c5fb16f3b315551000000000000000000000000000000000000000000000000000000000000000000000000000000000000000000000000000000000000000000000000000000246c361865000000000000000000000000d0a7a8b98957b9cd3cfb9c0425abe44551158e9e006af7377b5009d7d154f36fe9e235ae1da27aea22000000000000000000000000000000000000000000000000000000000000000000000000000000000000000000000000000000000000000000000000000000246c361865000000000000000000000000d0a7a8b98957b9cd3cfb9c0425abe44551158e9e0099f39d495c6a5237f43602f3ab5f49786e46c9b0000000000000000000000000000000000000000000000000000000000000000000000000000000000000000000000000000000000000000000000000000000246c361865000000000000000000000000d0a7a8b98957b9cd3cfb9c0425abe44551158e9e000000000000000000000000",
        "operation": 1,
        "gasToken": "0x0000000000000000000000000000000000000000",
        "safeTxGas": 898751,
        "baseGas": 0,
        "gasPrice": "0",
        "refundReceiver": "0x0000000000000000000000000000000000000000",
        "nonce": 1008,
        "executionDate": None,
        "submissionDate": "2022-02-23T22:28:52.094901Z",
        "modified": "2022-02-24T19:57:00.10311Z",
        "blockNumber": None,
        "transactionHash": None,
        "safeTxHash": "0xa5a0509a6c0c3e9abf04c00a7cbe8add0a2f2f2a2c3bfdd7e039f90db55b0278",
        "executor": None,
        "isExecuted": False,
        "isSuccessful": None,
        "ethGasPrice": None,
        "gasUsed": None,
        "fee": None,
        "origin": "github.com/banteg/ape-safe",
        "confirmationsRequired": 3,
        "confirmations": [
            {
                "owner": "0xaF94D299a73c4545ff702E79D16d9fb1AB5BDAbF",
                "submissionDate": "2022-02-24T17:00:09.353807Z",
                "transactionHash": None,
                "signature": "0x51c0ebe5d833165d2e9b033d8bdf1d100553c80737081309877c83bcf2f98adf7f0b4e37398c00338d6b8f59020d474335d1d57e9c36401c6af2f06cccaa72991c",
                "signatureType": "EOA"
            },
            {
                "owner": "0x15b8Fe651C268cfb5b519cC7E98bd45C162313C2",
                "submissionDate": "2022-02-24T17:12:20.671535Z",
                "transactionHash": None,
                "signature": "0xcff07fecfd5b2ae8968dffe6146c301494f89024ad94765deadbdaf5f3e50c83413e28b0832fa515a5e1250b6bf859943a22e94070845d7fff8e3480bad3fe9f20",
                "signatureType": "ETH_SIGN"
            },
            {
                "owner": "0x54cF9dF9dCd78E470AB7CB892D7bFbE114c025fc",
                "submissionDate": "2022-02-24T20:01:57.103112Z",
                "transactionHash": None,
                "signature": "0x64c50cea23de21cfde66fa0be875271863b181fdb620eb1788d2115a45ff438c0391fd87b55ace52e2751a3e251159bdd08d8af2af95558d68b8cbb8fd76d6dd1f",
                "signatureType": "ETH_SIGN"
            }
        ],
        "signatures": None,
        "transfers": [],
        "txType": "MULTISIG_TRANSACTION"
    },
    # TxSuccessEvent
    {
        "safe": "0xB65cef03b9B89f99517643226d76e286ee999e77",
        "to": "0xfreraCCbd92BCA938b02010E17A5b8929b4sdafe43",
        "value": "0",
        "data": "0x8d80ff0a00000000000000000000000000000000000000000000000000000000000000200000000000000000000000000000000000000000000000000000000000000dbf002260fac5e5542a773aa44fbcfedf7c193bc2c59900000000000000000000000000000000000000000000000000000000000000000000000000000000000000000000000000000000000000000000000000000044a9059cbb000000000000000000000000042b32ac6b453485e357938bdc38e0340d4b927600000000000000000000000000000000000000000000000000000000007bd27700eb4c2781e4eba804ce9a9803c67d0893436bb27d00000000000000000000000000000000000000000000000000000000000000000000000000000000000000000000000000000000000000000000000000000044a9059cbb000000000000000000000000042b32ac6b453485e357938bdc38e0340d4b927600000000000000000000000000000000000000000000000000000000048a67ae008798249c2e607446efb7ad49ec89dd1865ff427200000000000000000000000000000000000000000000000000000000000000000000000000000000000000000000000000000000000000000000000000000044a9059cbb000000000000000000000000042b32ac6b453485e357938bdc38e0340d4b9276000000000000000000000000000000000000000000000025015c6baed952dd360049849c98ae39fff122806c06791fa73784fb367500000000000000000000000000000000000000000000000000000000000000000000000000000000000000000000000000000000000000000000000000000044a9059cbb000000000000000000000000042b32ac6b453485e357938bdc38e0340d4b9276000000000000000000000000000000000000000000000000101fedee64637b9500075b1bb99792c9e1041ba13afef80c91a1e70fb300000000000000000000000000000000000000000000000000000000000000000000000000000000000000000000000000000000000000000000000000000044a9059cbb000000000000000000000000042b32ac6b453485e357938bdc38e0340d4b927600000000000000000000000000000000000000000000000012a3ee14ada44e7d0064eda51d3ad40d56b9dfc5554e06f94e1dd786fd00000000000000000000000000000000000000000000000000000000000000000000000000000000000000000000000000000000000000000000000000000044a9059cbb000000000000000000000000042b32ac6b453485e357938bdc38e0340d4b9276000000000000000000000000000000000000000000000000000b585711852e2900ceff51756c56ceffca006cd410b03ffc46dd3a5800000000000000000000000000000000000000000000000000000000000000000000000000000000000000000000000000000000000000000000000000000044a9059cbb000000000000000000000000042b32ac6b453485e357938bdc38e0340d4b927600000000000000000000000000000000000000000000000000000001d241716c0018d98d452072ac2eb7b74ce3db723374360539f100000000000000000000000000000000000000000000000000000000000000000000000000000000000000000000000000000000000000000000000000000044a9059cbb000000000000000000000000042b32ac6b453485e357938bdc38e0340d4b927600000000000000000000000000000000000000000000000000000019d4bbc86200b19059ebb43466c323583928285a49f558e572fd00000000000000000000000000000000000000000000000000000000000000000000000000000000000000000000000000000000000000000000000000000044a9059cbb000000000000000000000000042b32ac6b453485e357938bdc38e0340d4b927600000000000000000000000000000000000000000000000000542c69e472289100410e3e86ef427e30b9235497143881f717d93c2a00000000000000000000000000000000000000000000000000000000000000000000000000000000000000000000000000000000000000000000000000000044a9059cbb000000000000000000000000042b32ac6b453485e357938bdc38e0340d4b927600000000000000000000000000000000000000000000000000b06b0494564896002fe94ea3d5d4a175184081439753de15aef9d61400000000000000000000000000000000000000000000000000000000000000000000000000000000000000000000000000000000000000000000000000000044a9059cbb000000000000000000000000042b32ac6b453485e357938bdc38e0340d4b9276000000000000000000000000000000000000000000000000001449f2c3b6b31f00de5331ac4b3630f94853ff322b66407e0d6331e800000000000000000000000000000000000000000000000000000000000000000000000000000000000000000000000000000000000000000000000000000044a9059cbb000000000000000000000000042b32ac6b453485e357938bdc38e0340d4b9276000000000000000000000000000000000000000000000000011f2922cfd78f1500fbdca68601f835b27790d98bbb8ec7f05fdeaa9b00000000000000000000000000000000000000000000000000000000000000000000000000000000000000000000000000000000000000000000000000000044a9059cbb000000000000000000000000042b32ac6b453485e357938bdc38e0340d4b92760000000000000000000000000000000000000000000000000f550a11baf4256100c4ad29ba4b3c580e6d59105fff484999997675ff00000000000000000000000000000000000000000000000000000000000000000000000000000000000000000000000000000000000000000000000000000044a9059cbb000000000000000000000000042b32ac6b453485e357938bdc38e0340d4b9276000000000000000000000000000000000000000000000000064175044fc0d77b004e3fbd56cd56c3e72c1403e103b45db9da5b9d2b00000000000000000000000000000000000000000000000000000000000000000000000000000000000000000000000000000000000000000000000000000044a9059cbb000000000000000000000000042b32ac6b453485e357938bdc38e0340d4b927600000000000000000000000000000000000000000000000c5dda1995992d67b20062b9c7356a2dc64a1969e19c23e4f579f9810aa700000000000000000000000000000000000000000000000000000000000000000000000000000000000000000000000000000000000000000000000000000044a9059cbb000000000000000000000000042b32ac6b453485e357938bdc38e0340d4b927600000000000000000000000000000000000000000000012e50cab00d28b4cdea002b5455aac8d64c14786c3a29858e43b5945819c000000000000000000000000000000000000000000000000000000000000000000000000000000000000000000000000000000000000000000000000000000044a9059cbb000000000000000000000000042b32ac6b453485e357938bdc38e0340d4b92760000000000000000000000000000000000000000000002f13ceb78f4e7bcc8b80004c90c198b2eff55716079bc06d7ccc4aa4d751200000000000000000000000000000000000000000000000000000000000000000000000000000000000000000000000000000000000000000000000000000044a9059cbb000000000000000000000000042b32ac6b453485e357938bdc38e0340d4b927600000000000000000000000000000000000000000000000040716fdec9b898be00fd05d3c7fe2924020620a8be4961bbaa747e630500000000000000000000000000000000000000000000000000000000000000000000000000000000000000000000000000000000000000000000000000000044a9059cbb000000000000000000000000042b32ac6b453485e357938bdc38e0340d4b92760000000000000000000000000000000000000000000000af5f1b0bd615ac7b3000a696a63cc78dffa1a63e9e50587c197387ff6c7e00000000000000000000000000000000000000000000000000000000000000000000000000000000000000000000000000000000000000000000000000000044a9059cbb000000000000000000000000042b32ac6b453485e357938bdc38e0340d4b9276000000000000000000000000000000000000000000000000000000000009a3540099f39d495c6a5237f43602f3ab5f49786e46c9b000000000000000000000000000000000000000000000000000000000000000000000000000000000000000000000000000000000000000000000000000000044a9059cbb000000000000000000000000042b32ac6b453485e357938bdc38e0340d4b9276000000000000000000000000000000000000000000000000000000012a05f20000352169127e1da21ad54788b7c17d990dd1b9c94000000000000000000000000000000000000000000000000000000000000000000000000000000000000000000000000000000000000000000000000000000044a9059cbb000000000000000000000000d0a7a8b98957b9cd3cfb9c0425abe44551158e9e00000000000000000000000000000000000000000000000000000000b2d05e00008e0b2eb3ebcd55168099806cb865085f461c8cd800000000000000000000000000000000000000000000000000000000000000000000000000000000000000000000000000000000000000000000000000000044a9059cbb000000000000000000000000d0a7a8b98957b9cd3cfb9c0425abe44551158e9e000000000000000000000000000000000000000000000000000000e8d4a5100000",
        "operation": 1,
        "gasToken": "0x0000000000000000000000000000000000000000",
        "safeTxGas": 1045829,
        "baseGas": 0,
        "gasPrice": "0",
        "refundReceiver": "0x0000000000000000000000000000000000000000",
        "nonce": 1007,
        "executionDate": "2022-02-24T19:57:00.10311Z",
        "submissionDate": "2022-02-22T19:23:25.095049Z",
        "modified": "2022-02-23T20:01:43.142055Z",
        "blockNumber": None,
        "transactionHash": None,
        "safeTxHash": "0xdef8cdeecae516753efb60abd9c2177868ee0a9ea666871514b73ccffe3fbfa6",
        "executor": None,
        "isExecuted": True,
        "isSuccessful": True,
        "ethGasPrice": None,
        "gasUsed": None,
        "fee": None,
        "origin": "https://gnosis-safe.io",
        "confirmationsRequired": None,
        "confirmations": [
            {
                "owner": "0xaF94D299a73c4545ff702E79D16d9fb1AB5BDAbF",
                "submissionDate": "2022-02-22T19:23:25.132721Z",
                "transactionHash": None,
                "signature": "0x3d8f5107beeecd27a227654e5f865ef1e273ca6fa5e2a5a5c054c47eac2ad0422a3db338eb6c3c2f58adcdf818c287de5e8dfd29b1b57b994c02202d22e895821f",
                "signatureType": "ETH_SIGN"
            },
            {
                "owner": "0x15b8Fe651C268cfb5b519cC7E98bd45C162313C2",
                "submissionDate": "2022-02-24T17:12:04.010034Z",
                "transactionHash": None,
                "signature": "0x99b2446324b9cc74e8db54512bace71010b39707011d624b14d57e1f8f163bb36b1fe5542a39af83bd2f22658f8ac434a5de49b5f12cf4bc1479fa5e15db6b4920",
                "signatureType": "ETH_SIGN"
            },
            {
                "owner": "0x54cF9dF9dCd78E470AB7CB892D7bFbE114c025fc",
                "submissionDate": "2022-02-24T20:01:43.142055Z",
                "transactionHash": None,
                "signature": "0xdab6350bf496694894f27db91fe137eb2f259d0262c34670cca19fc3553eb30f3c8da298c133fd1b87b3b72a42926ef298e87ce125960ec1a49d1bb582dad22a1f",
                "signatureType": "ETH_SIGN"
            }
        ],
        "signatures": None,
        "transfers": [],
        "txType": "MULTISIG_TRANSACTION"
    },
    # TxFailedEvent
    {
        "safe": "0xB65cef03b9B89f99517643226d76e286ee999e77",
        "to": "0x93DFH84CCbd92BCA938b02010E17A5b892d9fdDF79",
        "value": "0",
        "data": "0x8d80ff0a00000000000000000000000000000000000000000000000000000000000000200000000000000000000000000000000000000000000000000000000000000dbf002260fac5e5542a773aa44fbcfedf7c193bc2c59900000000000000000000000000000000000000000000000000000000000000000000000000000000000000000000000000000000000000000000000000000044a9059cbb000000000000000000000000042b32ac6b453485e357938bdc38e0340d4b927600000000000000000000000000000000000000000000000000000000007bd27700eb4c2781e4eba804ce9a9803c67d0893436bb27d00000000000000000000000000000000000000000000000000000000000000000000000000000000000000000000000000000000000000000000000000000044a9059cbb000000000000000000000000042b32ac6b453485e357938bdc38e0340d4b927600000000000000000000000000000000000000000000000000000000048a67ae008798249c2e607446efb7ad49ec89dd1865ff427200000000000000000000000000000000000000000000000000000000000000000000000000000000000000000000000000000000000000000000000000000044a9059cbb000000000000000000000000042b32ac6b453485e357938bdc38e0340d4b9276000000000000000000000000000000000000000000000025015c6baed952dd360049849c98ae39fff122806c06791fa73784fb367500000000000000000000000000000000000000000000000000000000000000000000000000000000000000000000000000000000000000000000000000000044a9059cbb000000000000000000000000042b32ac6b453485e357938bdc38e0340d4b9276000000000000000000000000000000000000000000000000101fedee64637b9500075b1bb99792c9e1041ba13afef80c91a1e70fb300000000000000000000000000000000000000000000000000000000000000000000000000000000000000000000000000000000000000000000000000000044a9059cbb000000000000000000000000042b32ac6b453485e357938bdc38e0340d4b927600000000000000000000000000000000000000000000000012a3ee14ada44e7d0064eda51d3ad40d56b9dfc5554e06f94e1dd786fd00000000000000000000000000000000000000000000000000000000000000000000000000000000000000000000000000000000000000000000000000000044a9059cbb000000000000000000000000042b32ac6b453485e357938bdc38e0340d4b9276000000000000000000000000000000000000000000000000000b585711852e2900ceff51756c56ceffca006cd410b03ffc46dd3a5800000000000000000000000000000000000000000000000000000000000000000000000000000000000000000000000000000000000000000000000000000044a9059cbb000000000000000000000000042b32ac6b453485e357938bdc38e0340d4b927600000000000000000000000000000000000000000000000000000001d241716c0018d98d452072ac2eb7b74ce3db723374360539f100000000000000000000000000000000000000000000000000000000000000000000000000000000000000000000000000000000000000000000000000000044a9059cbb000000000000000000000000042b32ac6b453485e357938bdc38e0340d4b927600000000000000000000000000000000000000000000000000000019d4bbc86200b19059ebb43466c323583928285a49f558e572fd00000000000000000000000000000000000000000000000000000000000000000000000000000000000000000000000000000000000000000000000000000044a9059cbb000000000000000000000000042b32ac6b453485e357938bdc38e0340d4b927600000000000000000000000000000000000000000000000000542c69e472289100410e3e86ef427e30b9235497143881f717d93c2a00000000000000000000000000000000000000000000000000000000000000000000000000000000000000000000000000000000000000000000000000000044a9059cbb000000000000000000000000042b32ac6b453485e357938bdc38e0340d4b927600000000000000000000000000000000000000000000000000b06b0494564896002fe94ea3d5d4a175184081439753de15aef9d61400000000000000000000000000000000000000000000000000000000000000000000000000000000000000000000000000000000000000000000000000000044a9059cbb000000000000000000000000042b32ac6b453485e357938bdc38e0340d4b9276000000000000000000000000000000000000000000000000001449f2c3b6b31f00de5331ac4b3630f94853ff322b66407e0d6331e800000000000000000000000000000000000000000000000000000000000000000000000000000000000000000000000000000000000000000000000000000044a9059cbb000000000000000000000000042b32ac6b453485e357938bdc38e0340d4b9276000000000000000000000000000000000000000000000000011f2922cfd78f1500fbdca68601f835b27790d98bbb8ec7f05fdeaa9b00000000000000000000000000000000000000000000000000000000000000000000000000000000000000000000000000000000000000000000000000000044a9059cbb000000000000000000000000042b32ac6b453485e357938bdc38e0340d4b92760000000000000000000000000000000000000000000000000f550a11baf4256100c4ad29ba4b3c580e6d59105fff484999997675ff00000000000000000000000000000000000000000000000000000000000000000000000000000000000000000000000000000000000000000000000000000044a9059cbb000000000000000000000000042b32ac6b453485e357938bdc38e0340d4b9276000000000000000000000000000000000000000000000000064175044fc0d77b004e3fbd56cd56c3e72c1403e103b45db9da5b9d2b00000000000000000000000000000000000000000000000000000000000000000000000000000000000000000000000000000000000000000000000000000044a9059cbb000000000000000000000000042b32ac6b453485e357938bdc38e0340d4b927600000000000000000000000000000000000000000000000c5dda1995992d67b20062b9c7356a2dc64a1969e19c23e4f579f9810aa700000000000000000000000000000000000000000000000000000000000000000000000000000000000000000000000000000000000000000000000000000044a9059cbb000000000000000000000000042b32ac6b453485e357938bdc38e0340d4b927600000000000000000000000000000000000000000000012e50cab00d28b4cdea002b5455aac8d64c14786c3a29858e43b5945819c000000000000000000000000000000000000000000000000000000000000000000000000000000000000000000000000000000000000000000000000000000044a9059cbb000000000000000000000000042b32ac6b453485e357938bdc38e0340d4b92760000000000000000000000000000000000000000000002f13ceb78f4e7bcc8b80004c90c198b2eff55716079bc06d7ccc4aa4d751200000000000000000000000000000000000000000000000000000000000000000000000000000000000000000000000000000000000000000000000000000044a9059cbb000000000000000000000000042b32ac6b453485e357938bdc38e0340d4b927600000000000000000000000000000000000000000000000040716fdec9b898be00fd05d3c7fe2924020620a8be4961bbaa747e630500000000000000000000000000000000000000000000000000000000000000000000000000000000000000000000000000000000000000000000000000000044a9059cbb000000000000000000000000042b32ac6b453485e357938bdc38e0340d4b92760000000000000000000000000000000000000000000000af5f1b0bd615ac7b3000a696a63cc78dffa1a63e9e50587c197387ff6c7e00000000000000000000000000000000000000000000000000000000000000000000000000000000000000000000000000000000000000000000000000000044a9059cbb000000000000000000000000042b32ac6b453485e357938bdc38e0340d4b9276000000000000000000000000000000000000000000000000000000000009a3540099f39d495c6a5237f43602f3ab5f49786e46c9b000000000000000000000000000000000000000000000000000000000000000000000000000000000000000000000000000000000000000000000000000000044a9059cbb000000000000000000000000042b32ac6b453485e357938bdc38e0340d4b9276000000000000000000000000000000000000000000000000000000012a05f20000352169127e1da21ad54788b7c17d990dd1b9c94000000000000000000000000000000000000000000000000000000000000000000000000000000000000000000000000000000000000000000000000000000044a9059cbb000000000000000000000000d0a7a8b98957b9cd3cfb9c0425abe44551158e9e00000000000000000000000000000000000000000000000000000000b2d05e00008e0b2eb3ebcd55168099806cb865085f461c8cd800000000000000000000000000000000000000000000000000000000000000000000000000000000000000000000000000000000000000000000000000000044a9059cbb000000000000000000000000d0a7a8b98957b9cd3cfb9c0425abe44551158e9e000000000000000000000000000000000000000000000000000000e8d4a5100000",
        "operation": 1,
        "gasToken": "0x0000000000000000000000000000000000000000",
        "safeTxGas": 1045829,
        "baseGas": 0,
        "gasPrice": "0",
        "refundReceiver": "0x0000000000000000000000000000000000000000",
        "nonce": 1007,
        "executionDate": "2022-02-24T19:57:00.10311Z",
        "submissionDate": "2022-02-22T19:23:25.095049Z",
        "modified": "2022-02-23T20:01:43.142055Z",
        "blockNumber": None,
        "transactionHash": None,
        "safeTxHash": "0xdef8cdeecae516753efb60abd9c2177868ee0a9ea666871514b73ccffe3fbfa6",
        "executor": None,
        "isExecuted": True,
        "isSuccessful": False,
        "ethGasPrice": None,
        "gasUsed": None,
        "fee": None,
        "origin": "https://gnosis-safe.io",
        "confirmationsRequired": None,
        "confirmations": [],
        "signatures": None,
        "transfers": [],
        "txType": "MULTISIG_TRANSACTION"
    },
    # NewTxEvent
    {
        "executionDate": "2022-02-24T19:57:00.10311Z",
        "to": "0x5Dce29e92b1b939F8E8C60DcF15BDE82A85be4a9",
        "data": "0x2e1a7d4d00000000000000000000000000000000000000000000000000b0a0f734e2cd73",
        "txHash": "0x094d0376c73a4be9615823157cacb74adb8406dca0efc3776b96ffb566f78e72",
        "blockNumber": 14202564,
        "transfers": [
            {
                "type": "ERC20_TRANSFER",
                "executionDate": "2022-02-14T06:15:45Z",
                "blockNumber": 14202564,
                "transactionHash": "0x094d0376c73a4be9615823157cacb74adb8406dca0efc3776b96ffb566f78e72",
                "to": "0xB65cef03b9B89f99517643226d76e286ee999e77",
                "value": "49863220149546",
                "tokenId": None,
                "tokenAddress": "0x410e3E86ef427e30B9235497143881f717d93c2A",
                "tokenInfo": {
                    "type": "ERC20",
                    "address": "0x410e3E86ef427e30B9235497143881f717d93c2A",
                    "name": "Curve.fi bBTC/sbtcCRV",
                    "symbol": "bBTC/sbtcCRV",
                    "decimals": 18,
                    "logoUri": "https://safe-transaction-assets.gnosis-safe.io/tokens/logos/0x410e3E86ef427e30B9235497143881f717d93c2A.png"
                },
                "from": "0xF2F3AB09E2D8986fBECbBa59aE838a5418a6680c"
            }
        ],
        "txType": "ETHEREUM_TRANSACTION",
        "from": "0x33ED72fAd47DaE83CEB997E779C64a45c7fa4791"
    },
    # Event that should be filtered
    {
        "executionDate": "2022-02-14T04:36:26Z",
        "to": "0x8a8FFec8f4A0C8c9585Da95D9D97e8Cd6de273DE",
        "data": "0x2e1a7d4d0000000000000000000000000000000000000000000000000000001b77282cd4",
        "txHash": "0x476c98be4e7aa53a4bc37ce38c1e19182f95cef8975b8eab60dd0c619cc59abf",
        "blockNumber": 14202093,
        "transfers": [
            {
                "type": "ERC20_TRANSFER",
                "executionDate": "2022-02-14T04:36:26Z",
                "blockNumber": 14202093,
                "transactionHash": "0x476c98be4e7aa53a4bc37ce38c1e19182f95cef8975b8eab60dd0c619cc59abf",
                "to": "0xB65cef03b9B89f99517643226d76e286ee999e77",
                "value": "117963238",
                "tokenId": None,
                "tokenAddress": "0x18d98D452072Ac2EB7b74ce3DB723374360539f1",
                "tokenInfo": {
                    "type": "ERC20",
                    "address": "0x18d98D452072Ac2EB7b74ce3DB723374360539f1",
                    "name": "SushiSwap LP Token",
                    "symbol": "SLP",
                    "decimals": 18,
                    "logoUri": "https://safe-transaction-assets.gnosis-safe.io/tokens/logos/0x18d98D452072Ac2EB7b74ce3DB723374360539f1.png"
                },
                "from": "0xf4146A176b09C664978e03d28d07Db4431525dAd"
            }
        ],
        "txType": "ETHEREUM_TRANSACTION",
        "from": "0x99060737C0655B7d1e708267bc5Add8c03866F72"
    },
]
